{
  "_format": "hh-sol-artifact-1",
  "contractName": "MyEpicNFT",
  "sourceName": "contracts/MyEpicNFT.sol",
  "abi": [
    {
      "inputs": [],
      "stateMutability": "nonpayable",
      "type": "constructor"
    },
    {
      "anonymous": false,
      "inputs": [
        {
          "indexed": true,
          "internalType": "address",
          "name": "owner",
          "type": "address"
        },
        {
          "indexed": true,
          "internalType": "address",
          "name": "approved",
          "type": "address"
        },
        {
          "indexed": true,
          "internalType": "uint256",
          "name": "tokenId",
          "type": "uint256"
        }
      ],
      "name": "Approval",
      "type": "event"
    },
    {
      "anonymous": false,
      "inputs": [
        {
          "indexed": true,
          "internalType": "address",
          "name": "owner",
          "type": "address"
        },
        {
          "indexed": true,
          "internalType": "address",
          "name": "operator",
          "type": "address"
        },
        {
          "indexed": false,
          "internalType": "bool",
          "name": "approved",
          "type": "bool"
        }
      ],
      "name": "ApprovalForAll",
      "type": "event"
    },
    {
      "anonymous": false,
      "inputs": [
        {
          "indexed": false,
          "internalType": "address",
          "name": "sender",
          "type": "address"
        },
        {
          "indexed": false,
          "internalType": "uint256",
          "name": "tokenId",
          "type": "uint256"
        }
      ],
      "name": "NewEpicNFTMinted",
      "type": "event"
    },
    {
      "anonymous": false,
      "inputs": [
        {
          "indexed": true,
          "internalType": "address",
          "name": "from",
          "type": "address"
        },
        {
          "indexed": true,
          "internalType": "address",
          "name": "to",
          "type": "address"
        },
        {
          "indexed": true,
          "internalType": "uint256",
          "name": "tokenId",
          "type": "uint256"
        }
      ],
      "name": "Transfer",
      "type": "event"
    },
    {
      "inputs": [
        {
          "internalType": "address",
          "name": "to",
          "type": "address"
        },
        {
          "internalType": "uint256",
          "name": "tokenId",
          "type": "uint256"
        }
      ],
      "name": "approve",
      "outputs": [],
      "stateMutability": "nonpayable",
      "type": "function"
    },
    {
      "inputs": [
        {
          "internalType": "address",
          "name": "owner",
          "type": "address"
        }
      ],
      "name": "balanceOf",
      "outputs": [
        {
          "internalType": "uint256",
          "name": "",
          "type": "uint256"
        }
      ],
      "stateMutability": "view",
      "type": "function"
    },
    {
      "inputs": [
        {
          "internalType": "uint256",
          "name": "tokenId",
          "type": "uint256"
        }
      ],
      "name": "getApproved",
      "outputs": [
        {
          "internalType": "address",
          "name": "",
          "type": "address"
        }
      ],
      "stateMutability": "view",
      "type": "function"
    },
    {
      "inputs": [],
      "name": "getNftCount",
      "outputs": [
        {
          "internalType": "uint256",
          "name": "",
          "type": "uint256"
        }
      ],
      "stateMutability": "view",
      "type": "function"
    },
    {
      "inputs": [
        {
          "internalType": "address",
          "name": "owner",
          "type": "address"
        },
        {
          "internalType": "address",
          "name": "operator",
          "type": "address"
        }
      ],
      "name": "isApprovedForAll",
      "outputs": [
        {
          "internalType": "bool",
          "name": "",
          "type": "bool"
        }
      ],
      "stateMutability": "view",
      "type": "function"
    },
    {
      "inputs": [],
      "name": "makeAnEpicNFT",
      "outputs": [],
      "stateMutability": "nonpayable",
      "type": "function"
    },
    {
      "inputs": [],
      "name": "name",
      "outputs": [
        {
          "internalType": "string",
          "name": "",
          "type": "string"
        }
      ],
      "stateMutability": "view",
      "type": "function"
    },
    {
      "inputs": [
        {
          "internalType": "uint256",
          "name": "tokenId",
          "type": "uint256"
        }
      ],
      "name": "ownerOf",
      "outputs": [
        {
          "internalType": "address",
          "name": "",
          "type": "address"
        }
      ],
      "stateMutability": "view",
      "type": "function"
    },
    {
      "inputs": [
        {
          "internalType": "uint256",
          "name": "tokenId",
          "type": "uint256"
        }
      ],
      "name": "pickRandomFirstWord",
      "outputs": [
        {
          "internalType": "string",
          "name": "",
          "type": "string"
        }
      ],
      "stateMutability": "view",
      "type": "function"
    },
    {
      "inputs": [
        {
          "internalType": "uint256",
          "name": "tokenId",
          "type": "uint256"
        }
      ],
      "name": "pickRandomSecondWord",
      "outputs": [
        {
          "internalType": "string",
          "name": "",
          "type": "string"
        }
      ],
      "stateMutability": "view",
      "type": "function"
    },
    {
      "inputs": [
        {
          "internalType": "uint256",
          "name": "tokenId",
          "type": "uint256"
        }
      ],
      "name": "pickRandomThirdWord",
      "outputs": [
        {
          "internalType": "string",
          "name": "",
          "type": "string"
        }
      ],
      "stateMutability": "view",
      "type": "function"
    },
    {
      "inputs": [
        {
          "internalType": "address",
          "name": "from",
          "type": "address"
        },
        {
          "internalType": "address",
          "name": "to",
          "type": "address"
        },
        {
          "internalType": "uint256",
          "name": "tokenId",
          "type": "uint256"
        }
      ],
      "name": "safeTransferFrom",
      "outputs": [],
      "stateMutability": "nonpayable",
      "type": "function"
    },
    {
      "inputs": [
        {
          "internalType": "address",
          "name": "from",
          "type": "address"
        },
        {
          "internalType": "address",
          "name": "to",
          "type": "address"
        },
        {
          "internalType": "uint256",
          "name": "tokenId",
          "type": "uint256"
        },
        {
          "internalType": "bytes",
          "name": "data",
          "type": "bytes"
        }
      ],
      "name": "safeTransferFrom",
      "outputs": [],
      "stateMutability": "nonpayable",
      "type": "function"
    },
    {
      "inputs": [
        {
          "internalType": "address",
          "name": "operator",
          "type": "address"
        },
        {
          "internalType": "bool",
          "name": "approved",
          "type": "bool"
        }
      ],
      "name": "setApprovalForAll",
      "outputs": [],
      "stateMutability": "nonpayable",
      "type": "function"
    },
    {
      "inputs": [
        {
          "internalType": "bytes4",
          "name": "interfaceId",
          "type": "bytes4"
        }
      ],
      "name": "supportsInterface",
      "outputs": [
        {
          "internalType": "bool",
          "name": "",
          "type": "bool"
        }
      ],
      "stateMutability": "view",
      "type": "function"
    },
    {
      "inputs": [],
      "name": "symbol",
      "outputs": [
        {
          "internalType": "string",
          "name": "",
          "type": "string"
        }
      ],
      "stateMutability": "view",
      "type": "function"
    },
    {
      "inputs": [
        {
          "internalType": "uint256",
          "name": "tokenId",
          "type": "uint256"
        }
      ],
      "name": "tokenURI",
      "outputs": [
        {
          "internalType": "string",
          "name": "",
          "type": "string"
        }
      ],
      "stateMutability": "view",
      "type": "function"
    },
    {
      "inputs": [
        {
          "internalType": "address",
          "name": "from",
          "type": "address"
        },
        {
          "internalType": "address",
          "name": "to",
          "type": "address"
        },
        {
          "internalType": "uint256",
          "name": "tokenId",
          "type": "uint256"
        }
      ],
      "name": "transferFrom",
      "outputs": [],
      "stateMutability": "nonpayable",
      "type": "function"
    }
  ],
  "bytecode": "0x60806040526040518061030001604052806102db8152602001620047db6102db91396009908162000031919062000b7d565b506040518060c001604052806040518060400160405280600281526020017f576500000000000000000000000000000000000000000000000000000000000081525081526020016040518060400160405280600381526020017f596f75000000000000000000000000000000000000000000000000000000000081525081526020016040518060400160405280600481526020017f546865790000000000000000000000000000000000000000000000000000000081525081526020016040518060400160405280600881526020017f4368696c6472656e00000000000000000000000000000000000000000000000081525081526020016040518060400160405280600781526020017f4861636b6572730000000000000000000000000000000000000000000000000081525081526020016040518060400160405280600881526020017f436974697a656e73000000000000000000000000000000000000000000000000815250815250600a906006620001af92919062000756565b506040518061012001604052806040518060400160405280600481526020017f486176650000000000000000000000000000000000000000000000000000000081525081526020016040518060400160405280600381526020017f536565000000000000000000000000000000000000000000000000000000000081525081526020016040518060400160405280600381526020017f476574000000000000000000000000000000000000000000000000000000000081525081526020016040518060400160405280600681526020017f437265617465000000000000000000000000000000000000000000000000000081525081526020016040518060400160405280600481526020017f46696e640000000000000000000000000000000000000000000000000000000081525081526020016040518060400160405280600481526020017f4b6e6f770000000000000000000000000000000000000000000000000000000081525081526020016040518060400160405280600381526020017f557365000000000000000000000000000000000000000000000000000000000081525081526020016040518060400160405280600381526020017f427579000000000000000000000000000000000000000000000000000000000081525081526020016040518060400160405280600481526020017f53656c6c00000000000000000000000000000000000000000000000000000000815250815250600b906009620003df929190620007b6565b506040518060e001604052806040518060400160405280600681526020017f4170706c6573000000000000000000000000000000000000000000000000000081525081526020016040518060400160405280600481526020017f436172730000000000000000000000000000000000000000000000000000000081525081526020016040518060400160405280600481526020017f50656e730000000000000000000000000000000000000000000000000000000081525081526020016040518060400160405280600981526020017f436f6d707574657273000000000000000000000000000000000000000000000081525081526020016040518060400160405280600581526020017f426f6f6b7300000000000000000000000000000000000000000000000000000081525081526020016040518060400160405280600581526020017f446f6f727300000000000000000000000000000000000000000000000000000081525081526020016040518060400160405280600781526020017f57696e646f777300000000000000000000000000000000000000000000000000815250815250600c9060076200059892919062000816565b50348015620005a657600080fd5b506040518060400160405280600981526020017f5371756172654e465400000000000000000000000000000000000000000000008152506040518060400160405280600681526020017f5351554152450000000000000000000000000000000000000000000000000000815250816000908162000624919062000b7d565b50806001908162000636919062000b7d565b505050620006846040518060400160405280601881526020017f54686973206973206d79204e465420636f6e74726163742e00000000000000008152506200068a60201b6200115f1760201c565b62000d17565b6200072a81604051602401620006a1919062000cf3565b6040516020818303038152906040527f41304fac000000000000000000000000000000000000000000000000000000007bffffffffffffffffffffffffffffffffffffffffffffffffffffffff19166020820180517bffffffffffffffffffffffffffffffffffffffffffffffffffffffff83818316178352505050506200072d60201b60201c565b50565b60008151905060006a636f6e736f6c652e6c6f679050602083016000808483855afa5050505050565b828054828255906000526020600020908101928215620007a3579160200282015b82811115620007a257825182908162000791919062000b7d565b509160200191906001019062000777565b5b509050620007b2919062000876565b5090565b82805482825590600052602060002090810192821562000803579160200282015b8281111562000802578251829081620007f1919062000b7d565b5091602001919060010190620007d7565b5b50905062000812919062000876565b5090565b82805482825590600052602060002090810192821562000863579160200282015b828111156200086257825182908162000851919062000b7d565b509160200191906001019062000837565b5b50905062000872919062000876565b5090565b5b808211156200089a57600081816200089091906200089e565b5060010162000877565b5090565b508054620008ac906200096c565b6000825580601f10620008c05750620008e1565b601f016020900490600052602060002090810190620008e09190620008e4565b5b50565b5b80821115620008ff576000816000905550600101620008e5565b5090565b600081519050919050565b7f4e487b7100000000000000000000000000000000000000000000000000000000600052604160045260246000fd5b7f4e487b7100000000000000000000000000000000000000000000000000000000600052602260045260246000fd5b600060028204905060018216806200098557607f821691505b6020821081036200099b576200099a6200093d565b5b50919050565b60008190508160005260206000209050919050565b60006020601f8301049050919050565b600082821b905092915050565b60006008830262000a057fffffffffffffffffffffffffffffffffffffffffffffffffffffffffffffffff82620009c6565b62000a118683620009c6565b95508019841693508086168417925050509392505050565b6000819050919050565b6000819050919050565b600062000a5e62000a5862000a528462000a29565b62000a33565b62000a29565b9050919050565b6000819050919050565b62000a7a8362000a3d565b62000a9262000a898262000a65565b848454620009d3565b825550505050565b600090565b62000aa962000a9a565b62000ab681848462000a6f565b505050565b5b8181101562000ade5762000ad260008262000a9f565b60018101905062000abc565b5050565b601f82111562000b2d5762000af781620009a1565b62000b0284620009b6565b8101602085101562000b12578190505b62000b2a62000b2185620009b6565b83018262000abb565b50505b505050565b600082821c905092915050565b600062000b526000198460080262000b32565b1980831691505092915050565b600062000b6d838362000b3f565b9150826002028217905092915050565b62000b888262000903565b67ffffffffffffffff81111562000ba45762000ba36200090e565b5b62000bb082546200096c565b62000bbd82828562000ae2565b600060209050601f83116001811462000bf5576000841562000be0578287015190505b62000bec858262000b5f565b86555062000c5c565b601f19841662000c0586620009a1565b60005b8281101562000c2f5784890151825560018201915060208501945060208101905062000c08565b8683101562000c4f578489015162000c4b601f89168262000b3f565b8355505b6001600288020188555050505b505050505050565b600082825260208201905092915050565b60005b8381101562000c9557808201518184015260208101905062000c78565b60008484015250505050565b6000601f19601f8301169050919050565b600062000cbf8262000903565b62000ccb818562000c64565b935062000cdd81856020860162000c75565b62000ce88162000ca1565b840191505092915050565b6000602082019050818103600083015262000d0f818462000cb2565b905092915050565b613ab48062000d276000396000f3fe608060405234801561001057600080fd5b50600436106101165760003560e01c806370a08231116100a2578063b88d4fde11610071578063b88d4fde14610305578063c575757a14610321578063c87b56dd14610351578063de9d132f14610381578063e985e9c51461038b57610116565b806370a082311461026b57806395d89b411461029b578063a22cb465146102b9578063b187301f146102d557610116565b806323b872dd116100e957806323b872dd146101b55780632de38d68146101d157806342842e0e146102015780636352211e1461021d578063692f1d121461024d57610116565b806301ffc9a71461011b57806306fdde031461014b578063081812fc14610169578063095ea7b314610199575b600080fd5b610135600480360381019061013091906122ad565b6103bb565b60405161014291906122f5565b60405180910390f35b61015361049d565b60405161016091906123a0565b60405180910390f35b610183600480360381019061017e91906123f8565b61052f565b6040516101909190612466565b60405180910390f35b6101b360048036038101906101ae91906124ad565b610575565b005b6101cf60048036038101906101ca91906124ed565b61068c565b005b6101eb60048036038101906101e691906123f8565b6106ec565b6040516101f891906123a0565b60405180910390f35b61021b600480360381019061021691906124ed565b610862565b005b610237600480360381019061023291906123f8565b610882565b6040516102449190612466565b60405180910390f35b610255610933565b604051610262919061254f565b60405180910390f35b6102856004803603810190610280919061256a565b610949565b604051610292919061254f565b60405180910390f35b6102a3610a00565b6040516102b091906123a0565b60405180910390f35b6102d360048036038101906102ce91906125c3565b610a92565b005b6102ef60048036038101906102ea91906123f8565b610aa8565b6040516102fc91906123a0565b60405180910390f35b61031f600480360381019061031a9190612738565b610ba0565b005b61033b600480360381019061033691906123f8565b610c02565b60405161034891906123a0565b60405180910390f35b61036b600480360381019061036691906123f8565b610cfa565b60405161037891906123a0565b60405180910390f35b610389610e0c565b005b6103a560048036038101906103a091906127bb565b6110cb565b6040516103b291906122f5565b60405180910390f35b60007f80ac58cd000000000000000000000000000000000000000000000000000000007bffffffffffffffffffffffffffffffffffffffffffffffffffffffff1916827bffffffffffffffffffffffffffffffffffffffffffffffffffffffff1916148061048657507f5b5e139f000000000000000000000000000000000000000000000000000000007bffffffffffffffffffffffffffffffffffffffffffffffffffffffff1916827bffffffffffffffffffffffffffffffffffffffffffffffffffffffff1916145b806104965750610495826111f8565b5b9050919050565b6060600080546104ac9061282a565b80601f01602080910402602001604051908101604052809291908181526020018280546104d89061282a565b80156105255780601f106104fa57610100808354040283529160200191610525565b820191906000526020600020905b81548152906001019060200180831161050857829003601f168201915b5050505050905090565b600061053a82611262565b6004600083815260200190815260200160002060009054906101000a900473ffffffffffffffffffffffffffffffffffffffff169050919050565b600061058082610882565b90508073ffffffffffffffffffffffffffffffffffffffff168373ffffffffffffffffffffffffffffffffffffffff16036105f0576040517f08c379a00000000000000000000000000000000000000000000000000000000081526004016105e7906128cd565b60405180910390fd5b8073ffffffffffffffffffffffffffffffffffffffff1661060f6112ad565b73ffffffffffffffffffffffffffffffffffffffff16148061063e575061063d816106386112ad565b6110cb565b5b61067d576040517f08c379a00000000000000000000000000000000000000000000000000000000081526004016106749061295f565b60405180910390fd5b61068783836112b5565b505050565b61069d6106976112ad565b8261136e565b6106dc576040517f08c379a00000000000000000000000000000000000000000000000000000000081526004016106d3906129f1565b60405180910390fd5b6106e7838383611403565b505050565b606060006107206106fc84611669565b60405160200161070c9190612a99565b6040516020818303038152906040526117c9565b90506107616040518060400160405280600b81526020017f72616e6420736565643a20000000000000000000000000000000000000000000815250826117fc565b600a80549050816107729190612aea565b90506107b36040518060400160405280601181526020017f72616e6420666972737420776f72643a20000000000000000000000000000000815250826117fc565b600a81815481106107c7576107c6612b1b565b5b9060005260206000200180546107dc9061282a565b80601f01602080910402602001604051908101604052809291908181526020018280546108089061282a565b80156108555780601f1061082a57610100808354040283529160200191610855565b820191906000526020600020905b81548152906001019060200180831161083857829003601f168201915b5050505050915050919050565b61087d83838360405180602001604052806000815250610ba0565b505050565b6000806002600084815260200190815260200160002060009054906101000a900473ffffffffffffffffffffffffffffffffffffffff169050600073ffffffffffffffffffffffffffffffffffffffff168173ffffffffffffffffffffffffffffffffffffffff160361092a576040517f08c379a000000000000000000000000000000000000000000000000000000000815260040161092190612b96565b60405180910390fd5b80915050919050565b6000806109406007611898565b90508091505090565b60008073ffffffffffffffffffffffffffffffffffffffff168273ffffffffffffffffffffffffffffffffffffffff16036109b9576040517f08c379a00000000000000000000000000000000000000000000000000000000081526004016109b090612c28565b60405180910390fd5b600360008373ffffffffffffffffffffffffffffffffffffffff1673ffffffffffffffffffffffffffffffffffffffff168152602001908152602001600020549050919050565b606060018054610a0f9061282a565b80601f0160208091040260200160405190810160405280929190818152602001828054610a3b9061282a565b8015610a885780601f10610a5d57610100808354040283529160200191610a88565b820191906000526020600020905b815481529060010190602001808311610a6b57829003601f168201915b5050505050905090565b610aa4610a9d6112ad565b83836118a6565b5050565b60606000610adc610ab884611669565b604051602001610ac89190612c94565b6040516020818303038152906040526117c9565b9050600b8054905081610aef9190612aea565b9050600b8181548110610b0557610b04612b1b565b5b906000526020600020018054610b1a9061282a565b80601f0160208091040260200160405190810160405280929190818152602001828054610b469061282a565b8015610b935780601f10610b6857610100808354040283529160200191610b93565b820191906000526020600020905b815481529060010190602001808311610b7657829003601f168201915b5050505050915050919050565b610bb1610bab6112ad565b8361136e565b610bf0576040517f08c379a0000000000000000000000000000000000000000000000000000000008152600401610be7906129f1565b60405180910390fd5b610bfc84848484611a12565b50505050565b60606000610c36610c1284611669565b604051602001610c229190612d02565b6040516020818303038152906040526117c9565b9050600c8054905081610c499190612aea565b9050600c8181548110610c5f57610c5e612b1b565b5b906000526020600020018054610c749061282a565b80601f0160208091040260200160405190810160405280929190818152602001828054610ca09061282a565b8015610ced5780601f10610cc257610100808354040283529160200191610ced565b820191906000526020600020905b815481529060010190602001808311610cd057829003601f168201915b5050505050915050919050565b6060610d0582611262565b6000600660008481526020019081526020016000208054610d259061282a565b80601f0160208091040260200160405190810160405280929190818152602001828054610d519061282a565b8015610d9e5780601f10610d7357610100808354040283529160200191610d9e565b820191906000526020600020905b815481529060010190602001808311610d8157829003601f168201915b505050505090506000610daf611a6e565b90506000815103610dc4578192505050610e07565b600082511115610df9578082604051602001610de1929190612d24565b60405160208183030381529060405292505050610e07565b610e0284611a85565b925050505b919050565b601460ff16610e1b6007611898565b10610e5b576040517f08c379a0000000000000000000000000000000000000000000000000000000008152600401610e5290612dba565b60405180910390fd5b6000610e676007611898565b90506000610e74826106ec565b90506000610e8183610aa8565b90506000610e8e84610c02565b90506000838383604051602001610ea793929190612dda565b604051602081830303815290604052905060006009858585604051602001610ed29493929190612eef565b6040516020818303038152906040529050610f216040518060400160405280601581526020017f0a2d2d2d2d2d2d2d2d2d2d2d2d2d2d2d2d2d2d2d2d000000000000000000000081525061115f565b610f2a8161115f565b610f686040518060400160405280601581526020017f2d2d2d2d2d2d2d2d2d2d2d2d2d2d2d2d2d2d2d2d0a000000000000000000000081525061115f565b6000610f9c83610f7784611aed565b604051602001610f8892919061308e565b604051602081830303815290604052611aed565b9050600081604051602001610fb1919061311f565b60405160208183030381529060405290506110006040518060400160405280601581526020017f0a2d2d2d2d2d20546f6b656e20555249202d2d2d2d000000000000000000000081525061115f565b6110098161115f565b6110476040518060400160405280601581526020017f2d2d2d2d2d2d2d2d2d2d2d2d2d2d2d2d2d2d2d2d0a000000000000000000000081525061115f565b6110513389611c84565b61105b8882611ca2565b61107e604051806060016040528060258152602001613a1a602591398933611d0f565b6110886007611dae565b7febb98688741ffa4c7589bf325de30cf7becb63de567842e1ccdb6cb949fdc82c33896040516110b9929190613141565b60405180910390a15050505050505050565b6000600560008473ffffffffffffffffffffffffffffffffffffffff1673ffffffffffffffffffffffffffffffffffffffff16815260200190815260200160002060008373ffffffffffffffffffffffffffffffffffffffff1673ffffffffffffffffffffffffffffffffffffffff16815260200190815260200160002060009054906101000a900460ff16905092915050565b6111f58160405160240161117391906123a0565b6040516020818303038152906040527f41304fac000000000000000000000000000000000000000000000000000000007bffffffffffffffffffffffffffffffffffffffffffffffffffffffff19166020820180517bffffffffffffffffffffffffffffffffffffffffffffffffffffffff8381831617835250505050611dc4565b50565b60007f01ffc9a7000000000000000000000000000000000000000000000000000000007bffffffffffffffffffffffffffffffffffffffffffffffffffffffff1916827bffffffffffffffffffffffffffffffffffffffffffffffffffffffff1916149050919050565b61126b81611ded565b6112aa576040517f08c379a00000000000000000000000000000000000000000000000000000000081526004016112a190612b96565b60405180910390fd5b50565b600033905090565b816004600083815260200190815260200160002060006101000a81548173ffffffffffffffffffffffffffffffffffffffff021916908373ffffffffffffffffffffffffffffffffffffffff160217905550808273ffffffffffffffffffffffffffffffffffffffff1661132883610882565b73ffffffffffffffffffffffffffffffffffffffff167f8c5be1e5ebec7d5bd14f71427d1e84f3dd0314c0f7b2291e5b200ac8c7c3b92560405160405180910390a45050565b60008061137a83610882565b90508073ffffffffffffffffffffffffffffffffffffffff168473ffffffffffffffffffffffffffffffffffffffff1614806113bc57506113bb81856110cb565b5b806113fa57508373ffffffffffffffffffffffffffffffffffffffff166113e28461052f565b73ffffffffffffffffffffffffffffffffffffffff16145b91505092915050565b8273ffffffffffffffffffffffffffffffffffffffff1661142382610882565b73ffffffffffffffffffffffffffffffffffffffff1614611479576040517f08c379a0000000000000000000000000000000000000000000000000000000008152600401611470906131dc565b60405180910390fd5b600073ffffffffffffffffffffffffffffffffffffffff168273ffffffffffffffffffffffffffffffffffffffff16036114e8576040517f08c379a00000000000000000000000000000000000000000000000000000000081526004016114df9061326e565b60405180910390fd5b6114f3838383611e59565b6114fe6000826112b5565b6001600360008573ffffffffffffffffffffffffffffffffffffffff1673ffffffffffffffffffffffffffffffffffffffff168152602001908152602001600020600082825461154e91906132bd565b925050819055506001600360008473ffffffffffffffffffffffffffffffffffffffff1673ffffffffffffffffffffffffffffffffffffffff16815260200190815260200160002060008282546115a591906132f1565b92505081905550816002600083815260200190815260200160002060006101000a81548173ffffffffffffffffffffffffffffffffffffffff021916908373ffffffffffffffffffffffffffffffffffffffff160217905550808273ffffffffffffffffffffffffffffffffffffffff168473ffffffffffffffffffffffffffffffffffffffff167fddf252ad1be2c89b69c2b068fc378daa952ba7f163c4a11628f55a4df523b3ef60405160405180910390a4611664838383611e5e565b505050565b6060600082036116b0576040518060400160405280600181526020017f300000000000000000000000000000000000000000000000000000000000000081525090506117c4565b600082905060005b600082146116e25780806116cb90613325565b915050600a826116db919061336d565b91506116b8565b60008167ffffffffffffffff8111156116fe576116fd61260d565b5b6040519080825280601f01601f1916602001820160405280156117305781602001600182028036833780820191505090505b5090505b600085146117bd5760018261174991906132bd565b9150600a856117589190612aea565b603061176491906132f1565b60f81b81838151811061177a57611779612b1b565b5b60200101907effffffffffffffffffffffffffffffffffffffffffffffffffffffffffffff1916908160001a905350600a856117b6919061336d565b9450611734565b8093505050505b919050565b6000816040516020016117dc919061339e565b6040516020818303038152906040528051906020012060001c9050919050565b61189482826040516024016118129291906133b5565b6040516020818303038152906040527fb60e72cc000000000000000000000000000000000000000000000000000000007bffffffffffffffffffffffffffffffffffffffffffffffffffffffff19166020820180517bffffffffffffffffffffffffffffffffffffffffffffffffffffffff8381831617835250505050611dc4565b5050565b600081600001549050919050565b8173ffffffffffffffffffffffffffffffffffffffff168373ffffffffffffffffffffffffffffffffffffffff1603611914576040517f08c379a000000000000000000000000000000000000000000000000000000000815260040161190b90613431565b60405180910390fd5b80600560008573ffffffffffffffffffffffffffffffffffffffff1673ffffffffffffffffffffffffffffffffffffffff16815260200190815260200160002060008473ffffffffffffffffffffffffffffffffffffffff1673ffffffffffffffffffffffffffffffffffffffff16815260200190815260200160002060006101000a81548160ff0219169083151502179055508173ffffffffffffffffffffffffffffffffffffffff168373ffffffffffffffffffffffffffffffffffffffff167f17307eab39ab6107e8899845ad3d59bd9653f200f220920489ca2b5937696c3183604051611a0591906122f5565b60405180910390a3505050565b611a1d848484611403565b611a2984848484611e63565b611a68576040517f08c379a0000000000000000000000000000000000000000000000000000000008152600401611a5f906134c3565b60405180910390fd5b50505050565b606060405180602001604052806000815250905090565b6060611a9082611262565b6000611a9a611a6e565b90506000815111611aba5760405180602001604052806000815250611ae5565b80611ac484611669565b604051602001611ad5929190612d24565b6040516020818303038152906040525b915050919050565b606060008251905060008103611b155760405180602001604052806000815250915050611c7f565b60006003600283611b2691906132f1565b611b30919061336d565b6004611b3c91906134e3565b90506000602082611b4d91906132f1565b67ffffffffffffffff811115611b6657611b6561260d565b5b6040519080825280601f01601f191660200182016040528015611b985781602001600182028036833780820191505090505b5090506000604051806060016040528060408152602001613a3f604091399050600181016020830160005b86811015611c3c5760038101905062ffffff818a015116603f8160121c168401518060081b905060ff603f83600c1c1686015116810190508060081b905060ff603f8360061c1686015116810190508060081b905060ff603f831686015116810190508060e01b90508084526004840193505050611bc3565b506003860660018114611c565760028114611c6657611c71565b613d3d60f01b6002830352611c71565b603d60f81b60018303525b508484525050819450505050505b919050565b611c9e828260405180602001604052806000815250611fea565b5050565b611cab82611ded565b611cea576040517f08c379a0000000000000000000000000000000000000000000000000000000008152600401611ce190613597565b60405180910390fd5b80600660008481526020019081526020016000209081611d0a919061374e565b505050565b611da9838383604051602401611d2793929190613820565b6040516020818303038152906040527f1c7ec448000000000000000000000000000000000000000000000000000000007bffffffffffffffffffffffffffffffffffffffffffffffffffffffff19166020820180517bffffffffffffffffffffffffffffffffffffffffffffffffffffffff8381831617835250505050611dc4565b505050565b6001816000016000828254019250508190555050565b60008151905060006a636f6e736f6c652e6c6f679050602083016000808483855afa5050505050565b60008073ffffffffffffffffffffffffffffffffffffffff166002600084815260200190815260200160002060009054906101000a900473ffffffffffffffffffffffffffffffffffffffff1673ffffffffffffffffffffffffffffffffffffffff1614159050919050565b505050565b505050565b6000611e848473ffffffffffffffffffffffffffffffffffffffff16612045565b15611fdd578373ffffffffffffffffffffffffffffffffffffffff1663150b7a02611ead6112ad565b8786866040518563ffffffff1660e01b8152600401611ecf94939291906138b3565b6020604051808303816000875af1925050508015611f0b57506040513d601f19601f82011682018060405250810190611f089190613914565b60015b611f8d573d8060008114611f3b576040519150601f19603f3d011682016040523d82523d6000602084013e611f40565b606091505b506000815103611f85576040517f08c379a0000000000000000000000000000000000000000000000000000000008152600401611f7c906134c3565b60405180910390fd5b805181602001fd5b63150b7a0260e01b7bffffffffffffffffffffffffffffffffffffffffffffffffffffffff1916817bffffffffffffffffffffffffffffffffffffffffffffffffffffffff191614915050611fe2565b600190505b949350505050565b611ff48383612068565b6120016000848484611e63565b612040576040517f08c379a0000000000000000000000000000000000000000000000000000000008152600401612037906134c3565b60405180910390fd5b505050565b6000808273ffffffffffffffffffffffffffffffffffffffff163b119050919050565b600073ffffffffffffffffffffffffffffffffffffffff168273ffffffffffffffffffffffffffffffffffffffff16036120d7576040517f08c379a00000000000000000000000000000000000000000000000000000000081526004016120ce9061398d565b60405180910390fd5b6120e081611ded565b15612120576040517f08c379a0000000000000000000000000000000000000000000000000000000008152600401612117906139f9565b60405180910390fd5b61212c60008383611e59565b6001600360008473ffffffffffffffffffffffffffffffffffffffff1673ffffffffffffffffffffffffffffffffffffffff168152602001908152602001600020600082825461217c91906132f1565b92505081905550816002600083815260200190815260200160002060006101000a81548173ffffffffffffffffffffffffffffffffffffffff021916908373ffffffffffffffffffffffffffffffffffffffff160217905550808273ffffffffffffffffffffffffffffffffffffffff16600073ffffffffffffffffffffffffffffffffffffffff167fddf252ad1be2c89b69c2b068fc378daa952ba7f163c4a11628f55a4df523b3ef60405160405180910390a461223d60008383611e5e565b5050565b6000604051905090565b600080fd5b600080fd5b60007fffffffff0000000000000000000000000000000000000000000000000000000082169050919050565b61228a81612255565b811461229557600080fd5b50565b6000813590506122a781612281565b92915050565b6000602082840312156122c3576122c261224b565b5b60006122d184828501612298565b91505092915050565b60008115159050919050565b6122ef816122da565b82525050565b600060208201905061230a60008301846122e6565b92915050565b600081519050919050565b600082825260208201905092915050565b60005b8381101561234a57808201518184015260208101905061232f565b60008484015250505050565b6000601f19601f8301169050919050565b600061237282612310565b61237c818561231b565b935061238c81856020860161232c565b61239581612356565b840191505092915050565b600060208201905081810360008301526123ba8184612367565b905092915050565b6000819050919050565b6123d5816123c2565b81146123e057600080fd5b50565b6000813590506123f2816123cc565b92915050565b60006020828403121561240e5761240d61224b565b5b600061241c848285016123e3565b91505092915050565b600073ffffffffffffffffffffffffffffffffffffffff82169050919050565b600061245082612425565b9050919050565b61246081612445565b82525050565b600060208201905061247b6000830184612457565b92915050565b61248a81612445565b811461249557600080fd5b50565b6000813590506124a781612481565b92915050565b600080604083850312156124c4576124c361224b565b5b60006124d285828601612498565b92505060206124e3858286016123e3565b9150509250929050565b6000806000606084860312156125065761250561224b565b5b600061251486828701612498565b935050602061252586828701612498565b9250506040612536868287016123e3565b9150509250925092565b612549816123c2565b82525050565b60006020820190506125646000830184612540565b92915050565b6000602082840312156125805761257f61224b565b5b600061258e84828501612498565b91505092915050565b6125a0816122da565b81146125ab57600080fd5b50565b6000813590506125bd81612597565b92915050565b600080604083850312156125da576125d961224b565b5b60006125e885828601612498565b92505060206125f9858286016125ae565b9150509250929050565b600080fd5b600080fd5b7f4e487b7100000000000000000000000000000000000000000000000000000000600052604160045260246000fd5b61264582612356565b810181811067ffffffffffffffff821117156126645761266361260d565b5b80604052505050565b6000612677612241565b9050612683828261263c565b919050565b600067ffffffffffffffff8211156126a3576126a261260d565b5b6126ac82612356565b9050602081019050919050565b82818337600083830152505050565b60006126db6126d684612688565b61266d565b9050828152602081018484840111156126f7576126f6612608565b5b6127028482856126b9565b509392505050565b600082601f83011261271f5761271e612603565b5b813561272f8482602086016126c8565b91505092915050565b600080600080608085870312156127525761275161224b565b5b600061276087828801612498565b945050602061277187828801612498565b9350506040612782878288016123e3565b925050606085013567ffffffffffffffff8111156127a3576127a2612250565b5b6127af8782880161270a565b91505092959194509250565b600080604083850312156127d2576127d161224b565b5b60006127e085828601612498565b92505060206127f185828601612498565b9150509250929050565b7f4e487b7100000000000000000000000000000000000000000000000000000000600052602260045260246000fd5b6000600282049050600182168061284257607f821691505b602082108103612855576128546127fb565b5b50919050565b7f4552433732313a20617070726f76616c20746f2063757272656e74206f776e6560008201527f7200000000000000000000000000000000000000000000000000000000000000602082015250565b60006128b760218361231b565b91506128c28261285b565b604082019050919050565b600060208201905081810360008301526128e6816128aa565b9050919050565b7f4552433732313a20617070726f76652063616c6c6572206973206e6f7420746f60008201527f6b656e206f776e6572206e6f7220617070726f76656420666f7220616c6c0000602082015250565b6000612949603e8361231b565b9150612954826128ed565b604082019050919050565b600060208201905081810360008301526129788161293c565b9050919050565b7f4552433732313a2063616c6c6572206973206e6f7420746f6b656e206f776e6560008201527f72206e6f7220617070726f766564000000000000000000000000000000000000602082015250565b60006129db602e8361231b565b91506129e68261297f565b604082019050919050565b60006020820190508181036000830152612a0a816129ce565b9050919050565b600081905092915050565b7f46495253545f574f524400000000000000000000000000000000000000000000600082015250565b6000612a52600a83612a11565b9150612a5d82612a1c565b600a82019050919050565b6000612a7382612310565b612a7d8185612a11565b9350612a8d81856020860161232c565b80840191505092915050565b6000612aa482612a45565b9150612ab08284612a68565b915081905092915050565b7f4e487b7100000000000000000000000000000000000000000000000000000000600052601260045260246000fd5b6000612af5826123c2565b9150612b00836123c2565b925082612b1057612b0f612abb565b5b828206905092915050565b7f4e487b7100000000000000000000000000000000000000000000000000000000600052603260045260246000fd5b7f4552433732313a20696e76616c696420746f6b656e2049440000000000000000600082015250565b6000612b8060188361231b565b9150612b8b82612b4a565b602082019050919050565b60006020820190508181036000830152612baf81612b73565b9050919050565b7f4552433732313a2061646472657373207a65726f206973206e6f74206120766160008201527f6c6964206f776e65720000000000000000000000000000000000000000000000602082015250565b6000612c1260298361231b565b9150612c1d82612bb6565b604082019050919050565b60006020820190508181036000830152612c4181612c05565b9050919050565b7f5345434f4e445f574f5244000000000000000000000000000000000000000000600082015250565b6000612c7e600b83612a11565b9150612c8982612c48565b600b82019050919050565b6000612c9f82612c71565b9150612cab8284612a68565b915081905092915050565b7f54484952445f574f524400000000000000000000000000000000000000000000600082015250565b6000612cec600a83612a11565b9150612cf782612cb6565b600a82019050919050565b6000612d0d82612cdf565b9150612d198284612a68565b915081905092915050565b6000612d308285612a68565b9150612d3c8284612a68565b91508190509392505050565b7f546865204e465420636f756e746572206869747320746865207570706572206260008201527f6f756e6421000000000000000000000000000000000000000000000000000000602082015250565b6000612da460258361231b565b9150612daf82612d48565b604082019050919050565b60006020820190508181036000830152612dd381612d97565b9050919050565b6000612de68286612a68565b9150612df28285612a68565b9150612dfe8284612a68565b9150819050949350505050565b60008190508160005260206000209050919050565b60008154612e2d8161282a565b612e378186612a11565b94506001821660008114612e525760018114612e6757612e9a565b60ff1983168652811515820286019350612e9a565b612e7085612e0b565b60005b83811015612e9257815481890152600182019150602081019050612e73565b838801955050505b50505092915050565b7f3c2f746578743e3c2f7376673e00000000000000000000000000000000000000600082015250565b6000612ed9600d83612a11565b9150612ee482612ea3565b600d82019050919050565b6000612efb8287612e20565b9150612f078286612a68565b9150612f138285612a68565b9150612f1f8284612a68565b9150612f2a82612ecc565b915081905095945050505050565b7f7b226e616d65223a202200000000000000000000000000000000000000000000600082015250565b6000612f6e600a83612a11565b9150612f7982612f38565b600a82019050919050565b7f222c20226465736372697074696f6e223a20224120686967686c79206163636c60008201527f61696d656420636f6c6c656374696f6e206f6620737175617265732e222c202260208201527f696d616765223a2022646174613a696d6167652f7376672b786d6c3b6261736560408201527f36342c0000000000000000000000000000000000000000000000000000000000606082015250565b600061302c606383612a11565b915061303782612f84565b606382019050919050565b7f227d000000000000000000000000000000000000000000000000000000000000600082015250565b6000613078600283612a11565b915061308382613042565b600282019050919050565b600061309982612f61565b91506130a58285612a68565b91506130b08261301f565b91506130bc8284612a68565b91506130c78261306b565b91508190509392505050565b7f646174613a6170706c69636174696f6e2f6a736f6e3b6261736536342c000000600082015250565b6000613109601d83612a11565b9150613114826130d3565b601d82019050919050565b600061312a826130fc565b91506131368284612a68565b915081905092915050565b60006040820190506131566000830185612457565b6131636020830184612540565b9392505050565b7f4552433732313a207472616e736665722066726f6d20696e636f72726563742060008201527f6f776e6572000000000000000000000000000000000000000000000000000000602082015250565b60006131c660258361231b565b91506131d18261316a565b604082019050919050565b600060208201905081810360008301526131f5816131b9565b9050919050565b7f4552433732313a207472616e7366657220746f20746865207a65726f2061646460008201527f7265737300000000000000000000000000000000000000000000000000000000602082015250565b600061325860248361231b565b9150613263826131fc565b604082019050919050565b600060208201905081810360008301526132878161324b565b9050919050565b7f4e487b7100000000000000000000000000000000000000000000000000000000600052601160045260246000fd5b60006132c8826123c2565b91506132d3836123c2565b92508282039050818111156132eb576132ea61328e565b5b92915050565b60006132fc826123c2565b9150613307836123c2565b925082820190508082111561331f5761331e61328e565b5b92915050565b6000613330826123c2565b91507fffffffffffffffffffffffffffffffffffffffffffffffffffffffffffffffff82036133625761336161328e565b5b600182019050919050565b6000613378826123c2565b9150613383836123c2565b92508261339357613392612abb565b5b828204905092915050565b60006133aa8284612a68565b915081905092915050565b600060408201905081810360008301526133cf8185612367565b90506133de6020830184612540565b9392505050565b7f4552433732313a20617070726f766520746f2063616c6c657200000000000000600082015250565b600061341b60198361231b565b9150613426826133e5565b602082019050919050565b6000602082019050818103600083015261344a8161340e565b9050919050565b7f4552433732313a207472616e7366657220746f206e6f6e20455243373231526560008201527f63656976657220696d706c656d656e7465720000000000000000000000000000602082015250565b60006134ad60328361231b565b91506134b882613451565b604082019050919050565b600060208201905081810360008301526134dc816134a0565b9050919050565b60006134ee826123c2565b91506134f9836123c2565b9250828202613507816123c2565b9150828204841483151761351e5761351d61328e565b5b5092915050565b7f45524337323155524953746f726167653a2055524920736574206f66206e6f6e60008201527f6578697374656e7420746f6b656e000000000000000000000000000000000000602082015250565b6000613581602e8361231b565b915061358c82613525565b604082019050919050565b600060208201905081810360008301526135b081613574565b9050919050565b60006020601f8301049050919050565b600082821b905092915050565b6000600883026136047fffffffffffffffffffffffffffffffffffffffffffffffffffffffffffffffff826135c7565b61360e86836135c7565b95508019841693508086168417925050509392505050565b6000819050919050565b600061364b613646613641846123c2565b613626565b6123c2565b9050919050565b6000819050919050565b61366583613630565b61367961367182613652565b8484546135d4565b825550505050565b600090565b61368e613681565b61369981848461365c565b505050565b5b818110156136bd576136b2600082613686565b60018101905061369f565b5050565b601f821115613702576136d381612e0b565b6136dc846135b7565b810160208510156136eb578190505b6136ff6136f7856135b7565b83018261369e565b50505b505050565b600082821c905092915050565b600061372560001984600802613707565b1980831691505092915050565b600061373e8383613714565b9150826002028217905092915050565b61375782612310565b67ffffffffffffffff8111156137705761376f61260d565b5b61377a825461282a565b6137858282856136c1565b600060209050601f8311600181146137b857600084156137a6578287015190505b6137b08582613732565b865550613818565b601f1984166137c686612e0b565b60005b828110156137ee578489015182556001820191506020850194506020810190506137c9565b8683101561380b5784890151613807601f891682613714565b8355505b6001600288020188555050505b505050505050565b6000606082019050818103600083015261383a8186612367565b90506138496020830185612540565b6138566040830184612457565b949350505050565b600081519050919050565b600082825260208201905092915050565b60006138858261385e565b61388f8185613869565b935061389f81856020860161232c565b6138a881612356565b840191505092915050565b60006080820190506138c86000830187612457565b6138d56020830186612457565b6138e26040830185612540565b81810360608301526138f4818461387a565b905095945050505050565b60008151905061390e81612281565b92915050565b60006020828403121561392a5761392961224b565b5b6000613938848285016138ff565b91505092915050565b7f4552433732313a206d696e7420746f20746865207a65726f2061646472657373600082015250565b600061397760208361231b565b915061398282613941565b602082019050919050565b600060208201905081810360008301526139a68161396a565b9050919050565b7f4552433732313a20746f6b656e20616c7265616479206d696e74656400000000600082015250565b60006139e3601c8361231b565b91506139ee826139ad565b602082019050919050565b60006020820190508181036000830152613a12816139d6565b905091905056fe416e204e465420772f20494420257320686173206265656e206d696e74656420746f2025734142434445464748494a4b4c4d4e4f505152535455565758595a6162636465666768696a6b6c6d6e6f707172737475767778797a303132333435363738392b2fa2646970667358221220861d40be87d3840d45a4157faef6d72e2ee500012e361c5591f54b8c0c27c5f864736f6c634300081100333c73766720786d6c6e733d27687474703a2f2f7777772e77332e6f72672f323030302f73766727207072657365727665417370656374526174696f3d27784d696e594d696e206d656574272076696577426f783d273020302033353020333530273e3c7374796c653e2e62617365207b2066696c6c3a2077686974653b20666f6e742d66616d696c793a2073616e732d73657269663b20666f6e742d73697a653a20323470783b20666f6e742d7765696768743a203730303b207d3c2f7374796c653e3c726563742077696474683d273130302527206865696768743d2731303025272066696c6c3d272330303132323027202f3e3c6720786d6c6e733d27687474703a2f2f7777772e77332e6f72672f323030302f73766727207472616e73666f726d3d277472616e736c617465283139342e3432303132343337343130393135203135382e383531343139303439373336303829273e3c7061746820643d274d39362e39202d39352e32433131332e33202d38302e36203130352e36202d34302e332039382e38202d362e384339322032362e362038352e392035332e332036392e362038302e314335332e33203130362e392032362e3620313334202d302e37203133342e37432d3238203133352e34202d35362e31203130392e38202d38352e332038322e39432d3131342e342035362e31202d3134342e37203238202d3134352e35202d302e38432d3134362e34202d32392e37202d3131372e37202d35392e34202d38382e36202d3734432d35392e34202d38382e36202d32392e37202d383820352e33202d39332e334334302e33202d39382e362038302e36202d3130392e382039362e39202d39352e32272066696c6c3d2723344641434637272f3e3c2f673e3c7465787420783d273530252720793d273530252720636c6173733d27626173652720646f6d696e616e742d626173656c696e653d276d6964646c652720746578742d616e63686f723d276d6964646c65273e",
  "linkReferences": {},
  "deployedLinkReferences": {}
}